:020000040800F2
:10000000000A0020FD250008BD250008BF250008C6
:1000100000000000000000000000000000000000E0
:10002000000000000000000000000000C3250008E0
:100030000000000000000000C5250008C7250008DA
:10004000F7150008000000009B1B00083B25000876
:10005000FB250008532700085F270008ED2700084C
:1000600000000000EF270008F1270008F327000830
:10007000F9250008F5270008F72700080000000010
:10008000F9270008FB270008FD270008FF270008C4
:100090000128000803280008052800080728000890
:1000A000092800080B2800080D2800080F28000860
:1000B000112800081328000800000000F12500089E
:1000C00070B505000C0000266078002820D00128BB
:1000D00028D0032821D005280BD0062804D00828D2
:1000E00011D009280AD022E02100280000F00AF9E6
:1000F00021E02100280000F0A4F91CE021002800E4
:1001000000F0CBF917E02100280000F01BFA12E004
:100110002100280000F03AFA0DE02100280000F04C
:1001200052FA08E02100280000F05FFA03E0210005
:10013000280000F08DFA3000C0B270BD70B5050027
:100140000C000026A87803281AD1A088C0B2022883
:1001500011DA21002800B822AA58926890470600B8
:10016000E08800280BD13000C0B2002807D1280059
:1001700000F0E0FA03E02100280000F069FA03E053
:100180002100280000F064FA3000C0B270BDF8B55C
:1001900004000E00002000900700B5887178002947
:1001A0006AD0012935D0032900D0A8E0A078022820
:1001B00002D003280ED027E02800C0B2002808D0C3
:1001C0002800C0B2802804D02900C9B2200000F065
:1001D000AAFC1DE0708800280CD12800C0B20028BD
:1001E00008D02800C0B2802804D02900C9B220005D
:1001F00000F099FC31002000B822A2589268904784
:10020000200000F097FA03E03100200000F020FA0F
:1002100075E0A078022802D003280ED027E028003D
:10022000C0B2002808D02800C0B2802804D029001D
:10023000C9B2200000F077FC1DE0708800280CD1C6
:100240002800C0B2002808D02800C0B2802804D0FE
:100250002900C9B2200000F0ACFC31002000B82217
:10026000A25892689047200000F064FA03E0310041
:10027000200000F0EDF942E0A178022902D0032924
:100280000ED037E02800C0B2002808D02800C0B245
:10029000802804D02900C9B2200000F044FC2DE0E1
:1002A00080212A00D2B20A40002A0ED02900C9B209
:1002B0004906490E282251436118897E002902D03F
:1002C0000120009010E000900EE00D420CD12900BA
:1002D000C9B22822514361186A22895C002902D0E0
:1002E0000120009000E0009002226946200000F00A
:1002F000ECF903E03100200000F0AAF9FFE7380034
:10030000C0B2F2BD7CB505000E00708880B2000A54
:10031000C0B2012808D0022815D003281ED0062814
:100320006AD007286DD071E06946E868C0B2C02283
:10033000AA58126890470400F088402802D108208B
:100340006946088067E06946E868C0B2B822AA58E2
:10035000126A90470400C4202C505CE07088C0B240
:10036000002808D0022818D00ED3042827D01DD387
:1003700005282DD035E06946E868C0B2C022AA58E9
:1003800052689047040036E06946E868C0B2C0226F
:10039000AA589268904704002DE06946E868C0B208
:1003A000C022AA58D2689047040024E06946E86851
:1003B000C0B2C022AA581269904704001BE06946E7
:1003C000E868C0B2C022AA5852699047040012E0FF
:1003D0006946E868C0B2C022AA58926990470400F2
:1003E00009E06A467188C9B2E868C0B2B823EB5820
:1003F0005B6A984704000EE03100280000F028F9FD
:100400001EE03100280000F023F919E03100280037
:1004100000F01EF914E068460088002810D0F0882B
:1004200000280DD068460088F188884202D3F08801
:1004300069460880684602882100280000F045F9D6
:1004400073BD70B505000C00A088002820D1E0889D
:1004500000281DD1A0784006400E0600A878032889
:1004600004D12100280000F0F3F815E02E713000CF
:10047000C0B232490860280000F05CF93000C0B218
:10048000002802D00220A87006E00120A87003E036
:100490002100280000F0DCF870BD70B504000E00EB
:1004A000274D708828702878022804DB310020004E
:1004B00000F0CEF841E0A078022802D0032813D043
:1004C00037E0287800280BD0287820700320A0700F
:1004D0002978200000F012FD200000F02BF902E046
:1004E000200000F027F928E0287800280BD102200E
:1004F000A070287820702978200000F00FFD2000DF
:1005000000F018F914E02878217888420DD021787D
:10051000200000F003FD287820702978200000F0EA
:10052000EDFC200000F006F902E0200000F002F9E6
:1005300003E03100200000F08BF870BDF8010020CE
:10054000FE01002038B504000D0000200090E8886E
:10055000012804D02900200000F07AF815E0A078E6
:10056000022802D0032806D00BE0012269462000B1
:1005700000F0ABF809E001222100200000F0A5F80E
:1005800003E02900200000F063F831BD38B5040015
:100590000D0000200090A078801E01280ED80120B8
:1005A0000090A068002803D0009802210143009128
:1005B00002226946200000F088F803E029002000AC
:1005C00000F046F831BD38B505000C006088012800
:1005D0000AD10120A86021002800B822AA589268F8
:1005E0009047280000F0A6F831BD38B505000C0092
:1005F000A878801E01280ED8608801280AD1002022
:10060000A86021002800B822AA58926890472800C4
:1006100000F090F803E02100280000F019F831BD47
:10062000027C0A70427C4A70827CC37C1B02D21816
:100630004A80027D437D1B02D2188A80827DC37D61
:100640001B02D218CA80CA88C26301224270704756
:1006500038B504000D000021200000F064FA31BD1F
:10066000F4B504000F0000252E00002C21D020003E
:1006700000F020F802214843801C0099088000986F
:1006800000883100C9B27854761C03203100C9B209
:100690007854761C207800280BD020783100C9B21D
:1006A0007854641C761C28003100C9B27854761C3A
:1006B000F0E7F1BD00B5010000200A78002A02D061
:1006C000401C491CF9E7C0B200BDF8B504000F009A
:1006D00015000026280080B2A063280080B2606365
:1006E000022060702B009BB23A000021200000F035
:1006F000C3F93000C0B2F2BDF8B507000E00150016
:1007000000242B009BB232000021380000F0B4F925
:100710002000C0B2F2BDF8B507000E00150000249D
:100720002B009BB232000021380000F06DF9200050
:10073000C0B2F2BD38B50500002404206870002363
:1007400000220021280000F097F92000C0B232BD3D
:1007500038B5050000240520687000230022002120
:10076000280000F051F92000C0B232BD10B50400DD
:1007700001200100A17000210A002271A160E06047
:10078000012000F0D7FB002000F0D4FB002000F097
:10079000D6FB002000F0D8FB0448BF21090201600D
:1007A000006880B200F0C6FB10BD0000E40100202C
:1007B00030B50400080080B2000609D5080080B2F8
:1007C0004006400E2825684320180500183508E02B
:1007D000080080B24006400E282568432018050016
:1007E0006835100080B2002804D10020A8721800DB
:1007F000A88006E00120A8721800E8801800000C0C
:100800002881002030BDF8B506000D001700280033
:1008100080B200060BD5280080B24006400E282189
:100820004843301804001834012060700AE02800A2
:1008300080B24006400E2821484330180400683436
:1008400000206070380080B2E06068460078E07098
:1008500028004006400E20702078002803D1002098
:100860006062E0612062002020616061A061A07090
:10087000E078002805D0022809D013D303280BD034
:1008800015E080218900207800F06AFB0FE000214C
:10089000207800F065FB0AE0C021C900207800F054
:1008A0005FFB04E08021C900207800F059FBA07AAA
:1008B000002820D1607800280BD0A188207800F093
:1008C0001BFC207800F0FEFB2021207800F05AFB72
:1008D00040E0A188207800F021FCE16889B220780E
:1008E00000F03EFC207800F0D3FBC0218901207885
:1008F00000F066FB2EE0207800F082FB2289E18880
:10090000207800F06DFC6078002812D1207800F08B
:10091000BFFB207800F0D6FB207800F0A7FBC021B9
:100920008901207800F04CFB0021207800F02AFBA0
:1009300010E0207800F0ACFB207800F0C3FB2078BA
:1009400000F080FB0021207800F01CFB00212078C3
:1009500000F036FB0020F2BD70B506000C00200050
:10096000C0B2000609D52000C0B24006400E2821C2
:10097000484330180500183508E02000C0B2400692
:10098000400E28214843301805006835A87A002811
:1009900012D16878002807D0287800F093FB002156
:1009A000287800F0EFFA2DE0287800F071FB0021A4
:1009B000287800F005FB25E06878002811D1287818
:1009C00000F066FB287800F07DFB287800F04EFBF5
:1009D0000021287800F0F4FA0021287800F0D2FAFB
:1009E00010E0287800F054FB287800F06BFB2878A2
:1009F00000F028FB0021287800F0C4FA00212878B4
:100A000000F0DEFA002070BDFEB507000E001500F4
:100A1000002000903100C9B24906490E28225143F6
:100A200079180C0068342561694609896161A06103
:100A3000E1686269914206D2E068009060690099BD
:100A4000401A606102E0616900916061A07A00284B
:100A500005D1009989B2207800F082FB05E0009A68
:100A600092B26178207800F0E1FBC0218901207802
:100A700000F0A6FA0020FEBDFEB507000D0016002E
:100A8000002001907F212A00D2B20A4028235A4335
:100A9000BA18140018342940217026610299616146
:100AA000A061E1686269914206D2E16801916169E1
:100AB000019A891A616102E0616901916061A17A1C
:100AC00000290BD1019A92B2A188206900F069FC3B
:100AD000019989B2207800F033FB1EE06946088056
:100AE000019A92B26178207800F0A0FB207800F0A3
:100AF00030FA400603D520896946088002E0E08884
:100B000069460880019A92B268460188206900F01F
:100B100048FC6178207800F01BFC3021207800F040
:100B200031FA0020FEBD70B506000C002000C0B2F6
:100B3000000609D52000C0B24006400E28214843D7
:100B400030180500183506E02000C0B228214843BF
:100B50003018050068352878002817D142482978D0
:100B600004225143425892B240491140802252011E
:100B70004A401021514089B23D4A0A432978042352
:100B8000594342500120A870002011E068780028E5
:100B900006D00120A8701021287800F0F3F906E0B3
:100BA0000120A87080214901287800F009FA00206E
:100BB00070BD70B506000C002000C0B2000609D55B
:100BC0002000C0B24006400E2821484330180500DE
:100BD000183506E02000C0B228214843301805002F
:100BE00068356878002809D0287800F06BFA302141
:100BF000287800F0C7F90020A87009E0287800F0F4
:100C000047FAC0218901287800F0DAF90020A8709D
:100C1000002070BD70B5002213000171022A13D2AA
:100C2000114B1400E4B204256C431C59114D2540AE
:100C30001400E4B22C430E4D25431400E4B2042604
:100C400074431D51521CE9E70B00DBB280241C43A6
:100C5000094B1C6070BD09490A6880231B021343BD
:100C60000B60012181707047005C0040BFBF000035
:100C7000808000008F8F00004C5C0040585C00407A
:100C8000F8B504000F0015001E00200000F0C6FBA0
:100C9000200000F016F8B8202550BC202650C020B7
:100CA000275000F0F8FB2000FFF760FDBC20205823
:100CB00000688047200000F0B2FB2000FFF7CBFF68
:100CC000F1BD0100002070471CB5040069462000FA
:100CD000FFF7A6FC68460078C006C00EC0B2002828
:100CE00003D002280BD005D30EE069462000FFF7A1
:100CF000E7F910E069462000FFF720FA0BE06946AB
:100D00002000FFF744FA06E06846017880200140A1
:100D10002000FFF708FF002016BD70B504000E008C
:100D20003000C0B200282BD1200068300500607868
:100D3000032834D1E868E969884210D2E869E96893
:100D4000401AE861E869E968884201D2EA6900E08E
:100D5000EA6892B229692000FFF7DDFC1FE0B820A5
:100D600020580069002807D0A078032804D120006B
:100D7000B8216158096988472000FFF7DBFC0EE0C5
:100D8000B82020588069002809D0A078032806D10F
:100D90003100C9B22000B822A258926990470020C1
:100DA00070BDF8B504000F003800C0B200284AD169
:100DB0002000183006006078022835D1F068F1690B
:100DC00088420AD2F069F168401AF061F26992B281
:100DD00031692000FFF790FC44E0306AF16800F0D0
:100DE000ADFB00290FD1306AF16888420BD3306A1D
:100DF000716A884207D2002200212000FFF77CFCA4
:100E0000002070622EE0B8202058C068002807D06B
:100E1000A078032804D12000B8216158C968884708
:100E20002000FFF795FC1DE0607804281AD10E4DD4
:100E30002868002816D02968C9B22000FFF7EAFE0A
:100E4000002028600EE0B82020584069002809D012
:100E5000A078032806D13900C9B22000B822A258D0
:100E6000526990470020F2BDF801002010B504003F
:100E70001823002200212000FFF79AFC58230022AB
:100E800080212000FFF794FC002340220021200055
:100E9000FFF7B9FC0023402280212000FFF7B3FCBC
:100EA0000120A070E068C0B2BC2161584968884741
:100EB000002010BD10B50400BC20205800698047F8
:100EC000E078A070002010BD10B50400A078E0709C
:100ED0000420A070BC202058C0688047002010BDAE
:100EE00010B50400B8202058C069002804D02000A4
:100EF000B8216158C9698847002010BD38B5050080
:100F00000C002100C9B22800B822AA5812689047E4
:100F1000BC20285880688047002032BD38B50500C5
:100F20000C002100C9B22800B822AA585268904784
:100F3000002032BD010089B23C4A116070470100B7
:100F400089B23C4A11607047374901403B4A116001
:100F500070473749C0B204225043085880B27047E6
:100F600030B4334A0300DBB204246343D3583E4C0D
:100F70001C400C43A4B20300DBB204256B43D450E5
:100F800030BC704730B52A4A0300DBB20424634307
:100F9000D458294B23401024214202D01D002300A5
:100FA0006B402024214202D01D0023006B40444CA2
:100FB0001C43A4B20300DBB204256B43D45030BD04
:100FC00030B51B4A0300DBB204246343D4581C4BE6
:100FD000234080246401214202D01D0023006B4085
:100FE0008024A401214202D01D0023006B40344C18
:100FF0001C43A4B20300DBB204256B43D45030BDC4
:1010000010B40B490200D2B204235A438A58394B18
:101010001340524A1A4392B20300DBB204246343E2
:10102000CA5010BC70470000F8FF0000405C004050
:10103000005C0040445C0040BF8F0000505C0040FA
:101040008FBF000010B465490200D2B204235A4396
:101050008A58284B1340724A1A430300DBB2042417
:101060006343CA5010BC70478F89000010B45B49BD
:101070000200D2B204235A438A581E4B1340694AD5
:101080001A430300DBB204246343CA5010BC704708
:1010900010B552490200D2B204235A438A5852046E
:1010A0000DD50200D2B204235A438A58114B134083
:1010B0005B4A1A430300DBB204246343CA5010BDE9
:1010C0008080000010B545490200D2B204235A4383
:1010D0008A5852060DD50200D2B204235A438A58C8
:1010E000044B13404F4A1A430300DBB2042463430A
:1010F000CA5010BD8F8F000010B44B4A126892B2D4
:101100000300DBB208246343D2187F4BD2180B00D4
:101110009BB25B085B00138010BC704710B4424A5E
:10112000126892B20300DBB208246343D218774BF3
:10113000D2180B009BB25B085B00138010BC704799
:1011400010B4394A126892B20300DBB20824634338
:10115000D2186F4BD218118010BC704780810000EC
:1011600010B5314A126892B20300DBB2082463431F
:10117000D2186F4BD2180B009BB23F2B0BDB0B002E
:101180009BB25B09CC0600D15B1E9B02802424022B
:101190001C43148007E00B009BB25B08CC0700D512
:1011A0005B1C9B02138010BD1F49096889B2C0B245
:1011B0000822504308185649401800888005800DC1
:1011C00070471949096889B2C0B20822504308180B
:1011D0005749401800888005800D7047005C00402A
:1011E00070B4114B1C68A4B20500EDB2082675431B
:1011F0006419454D64190D00ADB26D086D00258070
:101200001B689BB20400E4B208256C431B193F4CD9
:101210001B191400A4B2640864001C8070BC7047E1
:1012200080C00000C0800000505C004030B50B0062
:10123000DBB2002B22D1674B1B689BB20400E4B2E7
:1012400008256C431B19324C1B191400A4B23F2C07
:101250000BDB1400A4B26409D50600D1641EA402FD
:1012600080252D0225431D8017E01400A4B26408D8
:10127000D50700D5641CA4021C800EE00B00DBB275
:10128000012B0AD1534B1B689BB20400E4B2082522
:101290006C431B191E4C1B191A800B00DBB2002B70
:1012A00022D14C4B1B689BB20400E4B208256C436E
:1012B0001B19544C1B191400A4B23F2C0BDB140057
:1012C000A4B26409D50600D1641EA40280252D02B3
:1012D00025431D8017E01400A4B26408D50700D58B
:1012E000641CA4021C800EE00B00DBB2012B0AD1AF
:1012F000384B1B689BB20400E4B208256C431B19F1
:10130000404C1B191A8030BD006000400460004052
:10131000026000402F49096889B2C0B208225043D8
:1013200008182D49401800888005800D704700007E
:10133000066000402749096889B2C0B208225043BC
:1013400008183049401800888005800D704700005B
:1013500030B50A00D2B2002A0FD12B4A0300DBB20B
:1013600004246343D358294C1C40294B23430400D5
:10137000E4B204256C43135112E00A00D2B2012AF0
:101380000ED1214A0300DBB204246343D3581F4C1F
:101390001C40204B23430400E4B204256C4313514A
:1013A00030BDF2B5110089B2491C49106D462D8837
:1013B000194EAD190E00002E0BD007783B00401CD3
:1013C00007783F021F433C002C80AD1C401C761E5A
:1013D000F1E7F1BD505C00400260004070B51300C1
:1013E0009BB25B1C5B100C00A4B20B4D65191C007A
:1013F000002C06D02E880680AD1C401C401C641EAC
:10140000F6E770BD06600040005C00408F8F000072
:10141000C080000080C0000000600040704770473E
:10142000020012200880274870470200042008802C
:101430002548704770B506000D00244C2A00210095
:101440002348FFF70DF9200070BD70B506000D00B0
:101450001E4C2A0021001F48FFF702F9200070BD32
:1014600002001A2008801C48704770B506000D0065
:10147000164C2A0021001948FFF7F2F8200070BD31
:1014800070B506000D00114C2A0021001448FFF72A
:10149000E7F8200070BDF8B51248006812490E68E0
:1014A00012490D684719002F0BD00B4C0822A11CC4
:1014B000380000F01DF8042221001231300000F045
:1014C00017F8F1BD9C270008E82700086C010020F0
:1014D00074270008882700084C000020C027000857
:1014E000B0270008ACF7FF1FB0F7FF1FB4F7FF1FCE
:1014F000F0B500231D001C0025001600EDB2F6B269
:10150000B5421AD2050F0A2D07D2050F3035260035
:10151000F6B202277E438D5506E0050F37352600CB
:10152000F6B202277E438D5500012500EDB202265A
:1015300075434D196B70641CDEE7F0BD0022030A91
:101540008B420BD203098B4219D243088B422ED215
:10155000411A00D20146524110467047FF2209024B
:101560003FD012068B4205D3121209028B4201D3DF
:101570001212090203098B4219D300E0090AC309B8
:101580008B4201D3CB01C01A524183098B4201D354
:101590008B01C01A524143098B4201D34B01C01A3F
:1015A000524103098B4201D30B01C01A5241C308B7
:1015B0008B4201D3CB00C01A524183088B4201D326
:1015C0008B00C01A524143088B4201D34B00C01A12
:1015D0005241884200D3401A5241CFD201461046B0
:1015E000704708B500F006F808BD704770477047AF
:1015F000704770477047FEE7FEB5002001006A465D
:10160000518069468880BF4800686946C880802547
:101610002D02284200D174E16846C0880007000FFF
:101620006946087068460078002800D086E0684661
:10163000C088C00618D4B448016889B2B34A0A40C9
:101640000260B34D2800183004002078FFF7ACFD8D
:10165000A0612069A1694018206100212800AD4ADD
:10166000126852689047CEE7A94F380068300400EE
:10167000A54E30686946888068468088000514D584
:101680002078FFF79EFDA061A26992B2A188380080
:101690001030FFF7A3FE30689F49014031603800E9
:1016A0009C49096889688847ADE768468088284270
:1016B000A9D030689849014031602078FFF781FD5A
:1016C000A061A069002809D0A26992B2A18820690E
:1016D000FFF784FE2069A1694018206100213800CD
:1016E0008C4A1268126890478C48006880B28C4916
:1016F0004018E1683F290BD3E1684909227BD206F3
:10170000D20E002A00D1491E89020D43058007E050
:10171000E1684908227BD20700D5491C8902018073
:101720003168804808408021490141408020800183
:101730004840B949014389B2316064E7724E684656
:10174000007804214843305869468880684680887C
:1017500028426ED0684600780421484330586E49CC
:10176000014068460078042250433150684D684675
:10177000007828214843281868300400A07A0028FF
:101780000FD12078FFF71DFD6946488068464088E4
:1017900000282ED068464288A1882069FFF71EFEE7
:1017A00027E02078FFF7D5FB40040FD52078FFF71E
:1017B000B1FD6946488068464088002815D06846D3
:1017C0004288E1882069FFF709FE0EE02078FFF7E4
:1017D000B1FD6946488068464088002805D06846C3
:1017E000428821892069FFF7F9FD00212078FFF761
:1017F000AFFDA069694649884018A0612069694623
:101800004988401820616069002804D068464088F3
:10181000E168884206D2217828003E4A12681268A0
:10182000904706E063699BB2226921782800FFF7A0
:10183000EBF868468088000600D4E4E6344D68463C
:10184000007828214843281818300400684600789A
:1018500004214843305880B22C4901406846007842
:10186000042250433150A07A00280DD12078FFF790
:101870009BFCA061A06900282AD0A26992B2A1882D
:101880002069FFF78EFD23E02078FFF762FB40061A
:101890000DD52078FFF73EFDA061A069002813D088
:1018A000A26992B2E1882069FFF77BFD0CE0207805
:1018B000FFF740FDA061A069002805D0A26992B29F
:1018C00021892069FFF76DFD01212078FFF740FD98
:1018D0002078FFF769FCA0612069A16940182061A8
:1018E0006069002806D1217828000A4A12685268E7
:1018F000904788E66369226921782800FFF7BCF8E1
:1019000081E6F7BD445C0040005C00400F8F0000A2
:10191000A40000202C0000208F0F0000505C00402D
:10192000066000408FBF00007CB50020694608803B
:101930003A4C206869460880394D68460088802105
:1019400009020140286889B2014201D0FFF754FE24
:10195000684600888021C9000140286889B2014298
:101960000BD030482060304E30003049096809699A
:10197000884700213000FFF74DF968460088802134
:1019800089010140286889B2014201D028482060BD
:1019900068460088802149010140286889B20142D7
:1019A00009D024482060204820490968896988476F
:1019B000002000F076F86846008880210901014087
:1019C000286889B2014208D01B4820601648174990
:1019D00009684969884700F035F868460088802121
:1019E00089000140286889B2014206D0134820606E
:1019F0000D480E490968C9688847684600888021F3
:101A000049000140286889B2014204D00C48206096
:101A1000072000F046F873BD80800000445C004061
:101A2000E4010020FFFB0000A40000202C000020A7
:101A3000FFDF0000FFEF0000FFF70000FFFD0000E8
:101A4000FFFE000010B544480268082111430A0057
:101A500092B20260026804241443220092B202602F
:101A60003E4A1368DB0404D40321012000F096F8F9
:101A700008E03B49116001683A4A0A40140021001D
:101A800089B2016010BD38B5334C2068364D054031
:101A9000280080B2206000F06FF8BF2000022060B4
:101AA00031BD70B504002000C0B2072801D02F4816
:101AB00004702E4E3078002808D002281AD011D396
:101AC000042825D01BD305282FD042E028480068E1
:101AD000002804D1FFF7D7FF0620307001E0052071
:101AE000307038E0FFF7CFFF04203070012020492C
:101AF000086030E002207070032030702BE07078B6
:101B0000401E70707078002801D10420307022E0EF
:101B100011490868102202431500280080B20860AD
:101B2000052030700A20707015E07078401E7070CB
:101B3000707800280CD1084908680E4A0240150048
:101B4000280080B208600620307000200849086034
:101B500001E00620307070BD405C0040445C0040F5
:101B6000FFEF0000F7FF0000FBFF0000FC0100207A
:101B7000F4010020EFFF000080B5012000F038F8EC
:101B8000712000F06BF90028FAD0032000F042F831
:101B90000021022000F0CCF901BDFEE770B5002263
:101BA000114C23680325AB43034323600F4C256886
:101BB00004262E4326600D00EDB2012D05D130BF65
:101BC00022680425AA4322600DE00A00D2B2022A4C
:101BD00005D120BF22680425AA43226003E02268C1
:101BE00002251543256070BD0070004010ED00E037
:101BF00000B50100C9B2002906D00C490A6880234B
:101C00005B0213430B6004E008490A68084B134069
:101C10000B6000BD10B40021034B1A680324A243DB
:101C200002431A6010BC7047041002403410024096
:101C3000FFFFFEFFFFB505000024200026000294F0
:101C4000019403946D4F39680C220A400092009968
:101C5000002906D0042907D0082908D00C2927D04C
:101C600029E07848286028E07648286025E039682F
:101C7000F020800308403968C02252020A400292D4
:101C8000800C801C06000298002803D16E48704327
:101C900004000BE06D4800680007000F401C019035
:101CA00068480199FFF74AFC704304002C6004E087
:101CB0006748286001E0634828603968F0200840E0
:101CC0000009009063480099425C2968D14069602E
:101CD0003B68E021C9001940090A00910099405C65
:101CE0006968C140A9604E490B68DB0502D45A4AB5
:101CF000EA6009E03A68520403D4AA685208EA602C
:101D000002E0AA689208EA600A68520602D4684AA9
:101D10002A6102E0802212022A610A68D20602D4F5
:101D2000484A6A6101E02A686A6103220B6813402D
:101D3000002B02D1AA68AA6114E00B681340012BA2
:101D400002D12A68AA610DE00B681340022B03D16F
:101D500080221202AA6105E00B681A40032A01D111
:101D6000384AAA61C02292020B681340002B02D1AC
:101D7000AA68EA6118E00B68134080277F02BB4223
:101D800002D12A68EA610FE00B6813408027BF0286
:101D9000BB4203D180221202EA6105E00B681340C6
:101DA000934201D1274AEA61C02212030B68134013
:101DB000002B02D1AA682A6218E00B681340802722
:101DC000FF02BB4202D12A682A620FE00B6813406F
:101DD00080273F03BB4203D1802212022A6205E022
:101DE0000B681340934201D1164A2A62096809061A
:101DF00002D41749696200E06C62FFBD0410024022
:101E000000B50A00D2B2002A04D02B4A136803435B
:101E1000136003E0284A13688343136000BD000089
:101E20003010024000B50A00D2B2002A04D0234A82
:101E300013680343136003E0204A1368834313606D
:101E400000BD000000127A0000093D002C10024085
:101E5000006CDC0200000020809FD500F0B501007E
:101E600000200400050002000B00DBB25B09DBB2BE
:101E7000002B02D1124C24680BE0012B02D10D4C37
:101E8000246806E0022B02D10E4C246801E00E4CBF
:101E900024680D00EDB2ED06ED0E01262700EF409F
:101EA0003740002F01D03000FFE7C0B2F0BD000086
:101EB0001280000020100240141002401C1002404A
:101EC000001002402410024034100240F0B50022FD
:101ED0008178002924D0274B01788910042461439C
:101EE00059580324FF250678264008277E43B5402D
:101EF000A9434578AD01EDB2067834400826744315
:101F0000A5400D432A0001788910042461435A50EA
:101F100001210378DB06DB0E9940174B196006E0C0
:101F200001210378DB06DB0E9940144B1960F0BDEC
:101F300010B50A00D2B2002A06D0114A1368040074
:101F4000E4B21C43146005E00D4A13680400E4B2D7
:101F5000A343136010BD00B5042805D109490A68E0
:101F6000042313430B6004E006490A6804239A43E0
:101F70000A6000BD00E400E000E100E080E100E074
:101F800010ED00E010E000E080B564480168012237
:101F90000A43026062490A68624B13400B600268A0
:101FA000614B134003600268604B13400360086894
:101FB0005F4A02400A605F4801680F229143016056
:101FC0005D4801685D4A0A4002605D48016801227F
:101FD0009143016000205B49086000F001F801BDF9
:101FE0003EB50021009102914C48026880235B02BB
:101FF0001343036080229202036813400293009B04
:102000005B1C0093029B002B04D1009BA024E401E5
:10201000A342EFD103681A40002A02D001220292A3
:1020200000E00291029A012A26D11121464A11604C
:102030003B490A680A600A680A600A68434B134011
:102040000B600A6888235B0313430B6002688023DC
:102050005B041343036002689201FCD50868032205
:10206000904308600868022202430A6008680C2254
:102070000240082AFAD14FE001910268344B134024
:102080000360012302681A430260022204681440BC
:102090000194009C641C0094019C002C04D1009CC1
:1020A000A025ED01AC42F0D104681440002C01D011
:1020B000019300E00191019901292DD11121224BB9
:1020C000196017490B680B600B680B601A4B1C6892
:1020D0008025AC431C601C68802525431D600B686F
:1020E0001C4C1C400C600B68A024A4031C430C6017
:1020F0000368802464041C43046003689B01FCD5CE
:102100000868032398430860086802430A60086867
:102110000C220240082AFAD137BD0000001002400C
:10212000041002400CB8FF08FFFFF6FEFFFFFBFFA4
:10213000FFFFC0FF2C10024030100240ACFEFFFF3A
:10214000341002400810024000200240FF7FC0FF10
:10215000FFFFFEFFFF7FC2FF38B504000D008023A4
:102160005B00002281212000FEF722FB03230422D2
:1021700081212000FEF747FB0323042201212000D8
:10218000FEF741FB002032BD38B504000D0081216F
:102190002000FEF7E1FB01212000FEF7DDFB00201F
:1021A00032BDF8B506000D0000273C0028786021FC
:1021B0000140C9B2002929D020295DD168780228C0
:1021C00017D0032808D00A280CD00B2817D168880C
:1021D000C0B22D49086018E001222B493000FEF7FB
:1021E00074FA12E0688880B2000AC0B22749086019
:1021F0000BE0012225493000FEF767FA05E02900CF
:102200003000FEF725FA022037E035E0687806282E
:1022100004D00A2826D00B282AD02DE0688880B266
:10222000000A80B2222808D1E8884B2801DB4A2422
:1022300000E0EC88164807000DE0688880B2000ACC
:1022400080B2212807D113480700E8880A2801DB5B
:10225000092400E0EC88220092B239003000FEF739
:1022600034FA09E001220C493000FEF72EFA03E0AF
:102270006888C0B2084908600020F2BD0200222030
:102280000880064870470000EC010020F0010020A3
:1022900070250008EA260008E8010020D82600087A
:1022A000F0B5020052B2002A23D503220F24354B89
:1022B00005006DB22540083DAD08042675430600B3
:1022C00076B23440083CA408042674431E59FF2704
:1022D000BC461400044008277C436746A740BE4321
:1022E0008C01E4B2024008277A43944034435C51A5
:1022F0001BE0254A0323040064B2A40804256C43B0
:102300001459FF251E00064008277E43B540AC4304
:102310008D01EDB20340082673439D402543030021
:102320005BB29B0804246343D550F0BD10B5040094
:10233000601E80214904884201D301200EE0601E06
:102340001249086003210020C043FFF7A9FF0020C5
:102350000F49086007200F490860002010BD80B5B4
:102360000420FFF7F8FD0C48FFF7E0FF00200B49C1
:1023700008600B49086000210020C043FFF790FF70
:1023800001BD00001CED00E000E400E014E000E00E
:1023900018E000E010E000E080A90300DC0100206C
:1023A000E001002000B5902189014843401C010054
:1023B000481E0029FBD100BD10B504002100C9B2A0
:1023C000F0204003FFF71CFD2100C9B28420400526
:1023D000FFF728FD10BDE0B52348818800916946CC
:1023E00001220A7100228A7103234B71CA71694666
:1023F000006800F049F807BD80B51C48FFF71AFCDB
:102400000120FFF7D9FF72B6FFF7E5FF00F096F85D
:1024100000F0A2F8164B174A17491848FEF730FC8F
:10242000FA208000FFF7BEFFFFF799FF62B601BDFB
:1024300000B513480178890713D512490A68521C60
:102440000A60026802239A4302600878C00704D534
:10245000054881880068018503E003488188006899
:10246000816100BD00000000D8270008AC010020F9
:10247000900000206800002030000020A400002010
:10248000D4010020D8010020F8B500231C001A0058
:102490000093102B50D2012425009D402A000D6886
:1024A00015400095009D954244D10D79012D02D033
:1024B0000D79022D1CD186680327BC461D0002271A
:1024C0007D436746AF40BE43866086684F79BC4611
:1024D0001D0002277D436746AF40374387608588EC
:1024E0009C40A543858084888D799D4025438580C7
:1024F000032406681F0002256F432500BD40AE433C
:10250000066006680F79BC461D0002277D436746BA
:10251000AF4037430760C5681E0002277E43B440C2
:10252000A543C560C468CD791E0002277E43B5402F
:102530002543C5605B1CACE7F1BDFEE7E0B505488F
:102540008188009103216A46117169460068FFF78E
:102550009BFF07BDE027000880B568461F2101707A
:102560000E214170012181706846FFF7AFFC01BD6B
:1025700005010902A1010901A100050919012903A9
:1025800015002501950375018102950175058101ED
:1025900005010930093109381581257F7508950332
:1025A0008106C0093C05FF0901150025017501954B
:1025B00002B12275069501B101C00000704700B557
:1025C000FEE77047704700B507480168491C016085
:1025D00000681521FEF7B2FF002904D10348016805
:1025E00002220A43026000BDDC010020D401002069
:1025F00080B5FFF799F901BD7047FEE7094880F300
:10260000088804200168090E1F22914205D106485E
:102610000121016005480021016005488047054807
:1026200000470000000A002018100240000001408E
:10263000891F0008CD27000870B40123002413E08F
:102640000168001D194202D04D466D1E49190C60EB
:10265000091D121F042AFAD20D00960701D50C801D
:10266000AD1C1A4000D02C700268001D002AE7D172
:1026700070BC704730B501684118446862088A1818
:102680008368E40704D54C461B1901E0641C06D19D
:1026900091420BD00C7864B2491C0D78491C1D7016
:1026A0005B1C002CF2D4641EF7D5F1E70C3030BD72
:1026B00010B5074979441831064C7C44163404E0BF
:1026C000081D0A68891888470100A142F8D110BD89
:1026D0002C0000004800000009022200010100E077
:1026E0003209040000010301020009211101000167
:1026F000224A000705810304000A00003DFFFFFF96
:102700005C010000A40000200000000069FFFFFF42
:1027100004010000F40000000000002000F00DF8AB
:10272000002801D0FFF7C4FF00BF00BF002000BF9A
:1027300000BF00F004F800F008F80120704780B5F1
:10274000FFF75AFEFFF774FEFCE780B500F002F8D1
:1027500001BDFEE70746384600F002F8FBE7FEE75A
:1027600080B500BF00BF024A11001820ABBEFBE7D6
:10277000260002004A6F79737469636B20696E20CA
:102780004653204D6F64650053544D6963726F6505
:102790006C656374726F6E696373000012010002EE
:1027A00000000040830410570002010203010000F2
:1027B00048494420496E7465726661636500000093
:1027C00048494420436F6E666967000000BF00BF40
:1027D00000BF00BFFFF7A2FF00000048010000009B
:1027E000000000480018000004030904FEE7FEE7AB
:1027F000FEE7FEE7FEE7FEE7FEE7FEE7FEE7FEE7B1
:10280000FEE7FEE7FEE7FEE7FEE7FEE7FEE7FEE7A0
:10281000FEE7FEE7FC00490102030401020304068F
:102820000708091B0D0008A30D0008C90C0008E1EA
:102830000E00086D0E0008C90E0008B50E00081045
:10284000000020211400082B1400084B1400083548
:10285000140008611400086B140008811400081AA1
:1028600003E6000B5921000889210008A321000874
:10287000EC00037D220008FC0013EB150008ED15A9
:0E2880000008EF150008F1150008F315000818
:04000005080027CDFB
:00000001FF
